:020000040800F2
:10000000A0050020D50000085D1A00085D19000851
:1000100000000000000000000000000000000000E0
:100020000000000000000000000000005D1B000850
:100030000000000000000000E91A00085F1B000833
:10004000E7000008E7000008E7000008E7000008F4
:10005000E7000008E7000008E7000008E7000008E4
:1000600000000000E7000008E7000008E7000008C3
:10007000E7000008E700000800000000E7000008B3
:100080000000000000000000000000000000000070
:10009000451C000800000000E7000008E700000819
:1000A00000000000E7000008000000000000000061
:1000B00071230008E70000080000000000000000B5
:1000C0000348854600F086F8004800473D240008B4
:1000D000A00500200448804704480047FEE7FEE7EB
:1000E000FEE7FEE7FEE7FEE7FD1B0008C100000893
:1000F00030B50B46014600202022012409E00D46C0
:10010000D5409D4205D31D469540491B2546954047
:1001100040191546521E002DF1DC30BDF0B51FB45C
:100120000646002082B005464024019100901BE065
:10013000019922460F46304600F03AF8049A059B92
:10014000801A994110D310461946224600F020F833
:10015000361A8F410197224601200021009F00F0AE
:1001600017F838184D4100902046641E0028DFDC47
:10017000019B00982946324607B0F0BD0321001DBF
:10018000401E037812021A43491EF9D510467047E3
:1001900010B5202A04DB0146203A9140002010BD12
:1001A000914020239C1A0346E3401943904010BD20
:1001B00010B5202A04DB0846203AD040002110BDAB
:1001C0000B46D340D0402024A21A91400843194640
:1001D00010BD0000064C0125064E05E0E36807CC83
:1001E0002B430C3C98471034B442F7D3FFF76CFF15
:1001F00048270008682700087EB5FF226B461A7062
:100200001A710E4C0022E51DF9350FE06B46865C35
:100210001B795E4002966B46A65D1B785E406B467E
:100220001E71029BEE5C6B461E70521C491EEDD285
:10023000694608780979000208437EBD1725000841
:1002400010B52248807800283ED0214801F0FEF801
:100250000F2000F095FB142000F092FB162000F018
:100260008FFB1C2000F08CFB092000F089FB042090
:1002700000F086FB0520FF21000700F0D9F9FF21DF
:10028000144800F0D5F9124801F094F810483830BD
:1002900001F0FEF900F06AFD00F028F90E48C16A8D
:1002A00049084900C162C16A02229143C162C16A20
:1002B00004229143C1620648103800F00FFB034846
:1002C0001030006800F0B1F810BD00000000002000
:1002D0002C000020000400500010024010B5084916
:1002E00000224A6107494B684C1523434B604B6819
:1002F000082423434B60C009C001026010BD000008
:10030000880100200020024010B5214A0021906998
:10031000C305204804D54169022319434161911561
:1003200093699B0505D54369012423434361630217
:10033000194393695B0505D5436908242343436149
:10034000E301194393691B0505D54369042423433D
:1003500043616302194393699B0405D543691024E3
:10036000234343616302194393699B0304D54469A2
:1003700020231C43446119439369DB0305D543697A
:10038000402423434361A0020143916110BD00005A
:10039000002002408801002070B5054600F066FA92
:1003A0000646184C0AE0681C08D0002D04D000F066
:1003B0005DFA801BA84201D9032070BDA069C00767
:1003C000F1D1A069800701D50220A061A069C00514
:1003D00011D4A06980050ED4A06940050BD4A06992
:1003E000000508D4A069800405D4A069800302D464
:1003F000A069C00303D5FFF787FF012070BD00206F
:1004000070BD0000002002401FB5044600F0F2F865
:1004100000200221009002910390019403A96846F4
:1004200000F084F800F0BEF81FBD012181F31088B0
:100430004168006880F30888084770B50C46054697
:1004400000F0D8F822462946022000F0B5F800F066
:10045000A9F870BD70B500240246203251790229F6
:1004600003D00421C16301243CE001680B680E2520
:10047000AB430B6001680B685B085B000B601A4BB9
:100480000168994201D1012121E0174B14339942AF
:1004900001D110211BE0144B2833994201D1891559
:1004A00015E0114B3C33994201D189140FE00E4BFA
:1004B0005033994202D10121090408E00A4B643308
:1004C000994202D10121090501E001210906064BEB
:1004D000083B59600121517100211171816B002984
:1004E00000D08847204670BD0800024010B50021AA
:1004F0000748C9438162002282624162426201620E
:100500000262C161C26100F01DFA002010BD00004E
:100510000010024031B500F0A9F9044600F0A6F938
:100520000099001B8842F9D338BD0000F8B51A4E77
:100530000546307C0F46012807D00120307417484B
:10054000FFF72AFF010002D021E00220F8BD0020C1
:10055000C04338606C6814E02046FFF7BFFE0F48C8
:10056000FFF71AFF01460E48426808239A4342608B
:10057000426843159A434260002901D03C6006E07E
:100580008034A8686A68C0018018A042E4D80020BE
:1005900030740846F8BD00008801002050C30000F8
:1005A00000200240034841680222114341600020BC
:1005B0007047000000200240F8B50C4C1646207C25
:1005C0000F46012808D0012020740948FFF7E4FEF7
:1005D0000025002802D006E00220F8BD65613E60DB
:1005E0000348FFF7D9FE2574F8BD000088010020FC
:1005F00050C300000948416889070CD54168C90704
:1006000003D00749C1600749C16007490161074933
:100610000161002070470120704700000020024067
:10062000EFCDAB8905040302BFAE9D8C16151413E4
:10063000F0B5002358E001249C4022460A4052D0E5
:1006400006685F000325BD402E43AC460660DD080A
:10065000AD002D182E6AAE465D07EF0E0F25BD408A
:10066000AE4375462E6286686546AE438660456831
:10067000A5434560C4686546AC43C4609D081C4CF6
:10068000AD002D19AF689C07260F0F24B440A44677
:100690003C4005273F07B84201D100270FE0154F26
:1006A000B84201D101270AE0134FB84201D1022715
:1006B00005E0124FB84201D1052700E00627B740F8
:1006C000A74210D1AE686446A643AE600C4C2568C4
:1006D00095432560656895436560A5689543A56069
:1006E000E5689543E5605B1C0A46DA40A3D1F0BD9E
:1006F000000001400004005000080050001C0050A1
:1007000000040140F8B5002301249DE027469F40E6
:100710003A4070D04D68022D01D0122D14D1DD0861
:10072000AD002D1800952D6A5E07AC46F50E0F261C
:10073000AE46AE406546B543AC460E697546AE4022
:1007400065462E43009D2E624D68012D05D0022D79
:1007500003D0112D01D0122D16D185680326AC4689
:100760005D00AE46AE406546B543AC46CE687546C4
:10077000AE4065462E43866046680D79BE43ED0661
:10078000ED0F9D403543456006685F000325BD4081
:10079000AE46AE430D79B446AE07B60FBE406546D1
:1007A0002E430660C6687546AE438D68BD4035432E
:1007B000C5604D68ED0046D5264D6E6B26436E63D1
:1007C0009E08254DB6007519AC46AD689E07360FDC
:1007D0000F27B740BD4305273F07B84201D1002787
:1007E00010E01E4FB84201D101270BE01C4FB84268
:1007F00002D1022706E026E01A4FB84201D10527B0
:1008000000E00627B7402F436546AF60164D2E68BF
:100810004F689643FF0300D516432E606E684F68FD
:100820009643BF0300D516436E60AE684F6896438B
:10083000FF0200D51643AE60EE684F689643BF02D4
:1008400000D51643EE605B1C0A681546DD4000D0FB
:100850005CE7F8BD001002400000014000040050B9
:1008600000080050001C00500004014001480068CE
:10087000704700001400002070B504000FD02168FC
:100880001348086021681348086003CC4160206861
:10089000083C21688860FFF7E9FF054608E0012071
:1008A00070BDFFF7E3FF401B302801D9032070BD66
:1008B0002068C0680028F4D120680269E1688A4293
:1008C00001D0016101E004490160002070BD000019
:1008D000CCCC000055550000AAAA000000680249CF
:1008E0000160002070470000AAAA000002480168C9
:1008F000491C0160704700001400002010B5064834
:100900000168402211430160002000F007F800F068
:100910001BF8002010BD00000020024010B5044666
:1009200007487D21C9000068FFF7E2FB00F002FDE7
:1009300000222146501E00F037F8002010BD0000B4
:10094000180000207047000010B50C48416B0122D0
:1009500011434163816B02041143816300221146FC
:10096000501F00F021F800221146901E00F01CF8E4
:1009700000221146501E00F017F810BD0010024072
:10098000C106C90E01208840014908607047000077
:1009900080E100E0C106C90E0120884001490860DD
:1009A0007047000000E100E010B501F07BF810BDD9
:1009B000F8B53A49034601240020E403364D374A8E
:1009C0004031022B31D0042B49D0082B56D0202B9C
:1009D0000BD10B69096903252D0429406700A60086
:1009E000B94203D199052CE02046F8BDB14203D1AC
:1009F0009907FAD52A48F8BDA942FCD111688903A4
:100A0000F9D5116803200005014001200005091AED
:100A100009D0091A05D0814201D12248F8BD2248E7
:100A2000F8BD2248F8BD2248F8BDCB680C263340FB
:100A30000AD0082B0BD0042B0ED00C2BF4D1096953
:100A400089050029D0DBF8BD00F0CCF9F8BD1168AC
:100A50004907FBD52846F8BD00F0E4F9F8BDCB689E
:100A60000326B6023340EFD00127FF02BB42EED08F
:100A70007A109342F0D0B342E1D0F8BDC9680323A5
:100A80001B031940E0D0012464036310A142DED0AF
:100A90009942E1D0F8BD00000024F40000100240AB
:100AA0008890000020A1070000093D0040420F008F
:100AB00080841E00F8B5044600784F4D800672D53C
:100AC0004D4E0027403EB06BC00004D4B06BA9056A
:100AD0000843B063012749480168C90511D401687A
:100AE000821511430160FFF7C1FE009005E0FFF79A
:100AF000BDFE0099401A642837D840480068C005F8
:100B0000F5D532680321090560680A400140914229
:100B100008D08103890F032904D13168890301D5E5
:100B20000120F8BD2A69032109040A4022D00840A7
:100B300090421FD0207880061CD528692A698843F6
:100B40000121C9040A432A612A698A432A6128616A
:100B5000C0050FD5FFF78AFE009008E0FFF786FE7C
:100B60000099411A2648814201D90320F8BD28691D
:100B70008005F3D561688803800F032805D13268AA
:100B80000005824301400A433260286903226168FC
:100B90001204114008432861002F04D0B16B0120DA
:100BA00000078143B1632078800705D5E8680C21F0
:100BB0008843A1680843E8602078400706D5E868C4
:100BC000032189028843E1680843E8602078000730
:100BD00006D5E86803210903884321690843E860D2
:100BE0002078000606D5E8680321890488436169F6
:100BF0000843E8600020F8BD40100240007000404B
:100C000088130000F8B5054653480E460068C00733
:100C1000C00FB0420AD25048016849084900314328
:100C200001600068C007C00FB0426FD128784B4CFC
:100C3000800705D5E068F0218843A9680843E06093
:100C40002878C00752D06868022817D0032818D027
:100C50002168012818D08905002957DAE168890838
:100C600089000143E160FFF701FE69680746022938
:100C700012D003291CD0012926D033E02168890332
:100C8000EAE721688901E7E74907E5E7FFF7EEFDB5
:100C9000C11B3348814223D8E0680007800F022837
:100CA000F4D123E0FFF7E2FDC11B2D48814217D8A4
:100CB000E0680007800F0328F4D117E0FFF7D6FDA6
:100CC000C11B274881420BD8E0680007800F01282C
:100CD000F4D10BE0FFF7CAFDC11B2148814201D9C5
:100CE0000320F8BDE0680007800FF3D11A480168BF
:100CF000C907C90FB1420BD90168490849003143FE
:100D000001600068C007C00FB04201D00120F8BDEB
:100D10002878400706D5E068072109028843E9687A
:100D20000843E0602878000707D5E0680721C9027A
:100D300088432969C9000843E06000F073F8E1685E
:100D4000084A0906090F515CC8400749086000209D
:100D5000FFF7E4FD0020F8BD002002400010024033
:100D600088130000242700081800002008B5154843
:100D70000168821511430160C16889088900C1605A
:100D80000168114A114001600168012212041140FA
:100D9000009101689200914301600021C1604268A6
:100DA0000A4B1A4005235B03D218426042681F2396
:100DB0001B029A438314D21842600161054904481A
:100DC000086008BD00100240D4FFF6FEFF1FFF00C0
:100DD00068FF1F00180000200148006870470000ED
:100DE00018000020044805490068C968044A4905FC
:100DF000490F515CC84070471800002000100240A5
:100E00003D270008044805490068C968044A890468
:100E1000490F515CC8407047180000200010024084
:100E20003D27000810B5184AD1680C200840042856
:100E30000BD0082810D00C2810D050680004410FA7
:100E40000120C003491C884010BD1068C00601D5B0
:100E50000E4810BD0E4810BD0E4810BD88020E4B46
:100E6000000F185C0902D368890F491CDB0301D508
:100E7000084A05E01268D20601D5044A00E0044A97
:100E80005043FFF735F910BD0010024000093D0046
:100E90000024F40000127A0034270008F8B5044654
:100EA0000078F24DC0074AD0E8680007800F02289A
:100EB00007D0E8680007800F032809D1E868C0035D
:100EC00006D5286880033AD56068002873D036E0DC
:100ED000012062680004824203D12968014329602D
:100EE00011E0052301211B0489049A422A6802D1DA
:100EF0000A432A60F1E782432A602A68024000928E
:100F0000286888432860606800280CD0FFF7AEFC92
:100F1000064604E0FFF7AAFC801B64287ED82868F8
:100F20008003F7D50BE0FFF7A1FC064604E0FFF7CE
:100F30009DFC801B6428F1D828688003F7D42078B2
:100F4000800741D5E8681F270007800F3F0201286E
:100F500007D0E8680007800F032809D1E868C003BC
:100F600006D42868400717D5E068012823D113E08C
:100F7000E068002817D029680922914301432960BD
:100F8000FFF774FC064604E0FFF770FC801B0228A4
:100F9000C4D828684007F7D568682169B8430902B2
:100FA0000843686010E02868400840002860FFF7A8
:100FB0005DFC064605E090E0FFF758FC801B022828
:100FC000ACD828684007F7D42078C00676D5E86802
:100FD000A74E0007800F0BD0A06900285DD02868BD
:100FE000FF21013108432860FFF740FC074644E039
:100FF0002868800502D5A06900286ED0206A69683B
:101000003140884212D900F071FD0028AED16868E5
:10101000216AB04308436860686800E0BBE00002F2
:10102000217F000A0906084368600FE06968B14340
:10103000014369606868217F0002000A09060843CD
:101040006860206A00F052FD00288FD1206A410BB1
:101050000120C003491C8840E96809060A0F854938
:10106000895CC840844908600020FFF757FC25E0F0
:10107000FFF7FCFBC01B02288AD828688005F7D53B
:101080006868216AB043084368606868217F00028D
:10109000000A09060843686010E02968FF20013053
:1010A00081432960FFF7E2FB064604E0FFF7DEFB21
:1010B000801B02286FD828688005F7D420786F4EEF
:1010C000000723D560690028306910D0012108434A
:1010D0003061FFF7CBFB074605E0C5E0FFF7C6FB35
:1010E000C01B022857D830698007F7D50EE04008AA
:1010F00040003061FFF7BAFB074604E0FFF7B6FB9C
:10110000C01B022847D830698007F7D420784007F1
:1011100062D5A86B0027C00005D4A86B0121090780
:101120000843A863012756480168C90511D401681E
:10113000821511430160FFF799FB009005E0FFF76E
:1011400095FB0099401A642825D84D480068C005D1
:10115000F5D5FF20A2680130824203D131690143F5
:10116000316111E001218902002A07D005231B0209
:101170009A4203D132690A433261EFE7326982430E
:101180003261306988433061A06800280FD0FFF7D2
:101190006DFB009007E060E0FFF768FB0099411AE3
:1011A0003848814259D830698005F5D50DE0FFF700
:1011B0005DFB009006E0FFF759FB0099411A3148AA
:1011C00081424AD830698005F5D4002F04D0A96B3C
:1011D000012000078143A963606A002842D0E968C2
:1011E0000907890F03293FD00126360602282868FF
:1011F00005D0B0432860FFF739FB04462FE0B04329
:101200002860FFF733FB074604E0FFF72FFBC01B06
:10121000022822D828688001F7D4E16AA06AEA6827
:101220000843216BFD231B049A4311430843E860E4
:10123000286830432860FFF719FB044604E0FFF7F5
:1012400015FB001B022808D828688001F7D509E0A3
:10125000FFF70CFB001B022801D90320F8BD28680A
:101260008001F5D40020F8BD0120F8BD0010024037
:1012700000E0000024270008180000204010024071
:101280000070004088130000FFB581B016460F467D
:10129000040005D025466035687A002803D007E0B1
:1012A000012005B0F0BD00202872204600F0C8FAE9
:1012B0002420687220680168490849000160606A5A
:1012C000002802D0204600F006FE204600F0F0FE86
:1012D0000128E6D0206881680122920311438160D1
:1012E00020688168520091433943816004987105F8
:1012F0000004226808431168064B1940014311603D
:1013000020680168012211430160204600F048FE78
:10131000C7E70000FFFF00FC042204490428086915
:1013200002D09043086170471043FBE700E000E003
:1013300070470000094910B5401E884201D90120BC
:1013400010BD074C60610321081F00F0ABFB0020BB
:10135000A06107202061002010BD0000FFFFFF00FA
:1013600000E000E010B5FFF7E3FF10BD70B50246E6
:101370002032137D012B1BD00123137502245475D9
:10138000046865687026B5436560046865680E6822
:10139000354365600468A5688026B543A56000688C
:1013A000846849680C43846053750020107570BDD3
:1013B000022070BD10B50221044620346175016819
:1013C0000A6A064B1A4203D10A68520852000A60A0
:1013D00000F020F800206075207510BD111100008C
:1013E00070B5040005D025462035687D002802D060
:1013F00006E0012070BD00202875204600F018F896
:1014000002206875211D206800F006FD0120687526
:10141000002070BD006801218907884204D103487B
:10142000816B490849008163704700000010024049
:10143000006801218907884204D10348816B012299
:101440001143816370470000001002400168CA68C0
:1014500052085200CA600068016A044A114203D16E
:10146000016849084900016000207047111100001F
:10147000F8B5054604462035287D012817D00127F8
:101480002F7502206875226890687726FF23B04385
:101490001B02984390600868502837D00EDC202843
:1014A00057D006DC00284ED0102840D14EE0022054
:1014B000F8BD302850D0402839D13CE060282DD0EC
:1014C000702817D001221203801A0ED090422ED11C
:1014D000CB684A688968206800F0C6FC206881688B
:1014E000012292031143816021E020688168C908CC
:1014F000C900F8E7CB684A688968206800F0B4FC46
:1015000021688868B0433043886010E0CA68496841
:10151000206800F0BCFC5021206806E0CA684968D9
:10152000206800F0C5FC6021206800F0A8FC6F7501
:1015300000202875F8BDCA684968206800F0A7FC3B
:1015400040212068F1E700212068EEE710212068A3
:10155000EBE720212068E8E730212068E5E77047C5
:1015600070B50446006801690025C9438907002950
:1015700015DBC168C943890711D4E91E0161012047
:101580002075206880698007204602D0FFF7E7FFBA
:1015900004E000F078F8204600F076F82575206821
:1015A0000169C943490717D4C168C943490713D41E
:1015B0000421C943016102202075206880698005EB
:1015C000800F204602D0FFF7CAFF04E000F05BF86E
:1015D000204600F059F8257520680169C9430907BC
:1015E00016D4C168C943090712D40821C94301614F
:1015F000042020752068C0698007204602D0FFF7CC
:10160000AEFF04E000F03FF8204600F03DF82575FD
:1016100020680169C943C90617D4C168C943C9060E
:1016200013D41021C9430161082020752068C069C6
:101630008005800F204602D0FFF791FF04E000F004
:1016400022F8204600F020F8257520680169C9437A
:10165000C90708D1C168C943C90704D1891E0161FE
:10166000204600F012F820680169C943490609D4F0
:10167000C168C943490605D44021C94301612046D8
:1016800000F004F870BD70477047704770477047AE
:1016900070B5040019D024212046603006464172FE
:1016A000206801684908490001602068002505603C
:1016B0002068456020688560204600F0ABF8E5664C
:1016C0007572B5723572002070BD012070BD704713
:1016D000F8B502680446D06911680607360F07D1CD
:1016E000830605D58B0603D5204600F0A2FCF8BD85
:1016F00095682023002E65D0EE07F60FFF272137CF
:101700000F4037435ED0C70706D0CF0504D5012769
:101710001762E26E3A43E266820708D5EA0706D00E
:10172000276802223A62E26E04273A43E2664207E1
:1017300008D5EA0706D0256804222A62E26E02254F
:101740002A43E266020709D50A461A40324305D009
:10175000236808221A62E36E1343E366E26E002AEE
:10176000C5D0800604D5880602D5204600F061FC6D
:10177000E06E000703D42068806840061CD5204630
:1017800000F048FC20688168490611D58268402134
:101790008A438260606E00280AD01D498163606EB2
:1017A000FEF758FE0028A2D0606E816B8847F8BD16
:1017B0002046FFF78CFFF8BD2046FFF788FF00208A
:1017C000E066F8BD2646C7026036002F0ADA6D02D1
:1017D00008D50120000510627372B3722046FFF72E
:1017E00056FFF8BD050605D50D0603D5204600F0C9
:1017F0005BFDF8BD4006FCD54806FAD520461468C6
:1018000040218C431460737200F0A7F8F8BD00000B
:101810000120000810B50068074988420AD107482E
:10182000816B012252049143816305200E21000740
:10183000FEF7FEFE10BD0000004400400010024014
:10184000F0B500680F4985B0884219D10E48816B08
:1018500001225204114381630C480224002503260F
:1018600004276A46F1C2052069460007FEF74AFFD1
:1018700060026A46F1C2052069460007FEF742FF92
:1018800005B0F0BD0044004000100240020200001C
:101890007047FFB5064604466036707A83B00D4641
:1018A000202858D1002D0CD00598002809D00120FF
:1018B000A1680003814207D12069002804D1E8070C
:1018C00002D0012007B0F0BD307A012843D00120BA
:1018D00030720020E06621207072FEF7C7FF019091
:1018E00027464037059838820598788218E0788A2C
:1018F000401E788206980090002280212046019B9D
:1019000000F005FD002818D10120A16800038142E4
:1019100002D12069002812D02168287888626D1CC5
:10192000788A0028E3D106980090002240212046C2
:10193000019B00F0ECFC002808D00320C2E72888B7
:101940002168C005C00D8862AD1CE9E720207072D7
:1019500000203072B6E70220B4E77047FEE70000CF
:1019600010B50121114886B08907002412C0046017
:10197000446084600838FFF733FD002800D0FEE79C
:1019800001200003009069460848FFF771FD002818
:1019900000D0FEE7049404A904480594FFF7E6FC90
:1019A000002800D0FEE706B010BD00002C0000208B
:1019B000F8B505461448416B0422114341631448AD
:1019C000124C0022134F8260134E90C0715D001DB7
:1019D00006C01438FFF704FD002800D0FEE7A76218
:1019E000705DE062E06801210843E0602068082142
:1019F000084320600021142000F032F8012007493C
:101A000000050860F8BD0000001002400008014019
:101A10002C000020BF5D00001425000800E100E05C
:101A200010B50D480B4901604B21C90141600021EF
:101A30008160C16001618161C1610C22016242610A
:101A40000B4641620A46FFF71FFC002800D0FEE764
:101A500010BD0000004400406400002070470000FA
:101A60008307FF22DB0E9A408907090E9940002860
:101A70000BDA0007000F0838830808489B00181885
:101A8000C36993430B43C3617047830804489B00B9
:101A90001B181868904308431860704700ED00E079
:101AA00000E400E08307FF22DB0E9A408907090E5D
:101AB000994000280BDA0007000F0838830808480F
:101AC0009B001818C36993430B43C3617047830895
:101AD00004489B001B18186890430843186070471F
:101AE00000ED00E000E400E07047000070B5174929
:101AF0000023CA681206120F18D18A6B154CD50044
:101B0000134A02D51268224009E08E6B01252D0789
:101B10002E438E6312688E6B2240AE438E63A242C8
:101B200004D103218903884200D101230A480168B6
:101B300049084900194301600068C007C00F984276
:101B400001D0012070BD002070BD000000100240D7
:101B5000007000400018000000200240704710B5DF
:101B6000FEF7C4FEFFF7FEFB10BD000030B52248B3
:101B700099B001680322D2029143C214891801600E
:101B80000A200090002401200A9403900590022569
:101B90008005102109950C900B9404916846FFF77D
:101BA0007DF9002800D0FEE70F200D9003200E9055
:101BB0000F941094012111940DA8FFF723F8002829
:101BC00000D0FEE712A812951494FEF773FF0028C8
:101BD00000D0FEE7FFF700F97D21C900FEF788FA83
:101BE000FFF7A8FB0420FFF797FB00221146501EC9
:101BF000FEF7DAFE19B030BD007000400E480168F3
:101C0000821511430160C1680C4A1140C16001682E
:101C10000B4A1140016081684908490081600168F0
:101C20000122920491430160C168FD221204914394
:101C3000C160002101617047001002400C40FF8824
:101C4000F6FFF6FEFEB56E4801686E4A114001606F
:101C50006D48FFF785FC6C4E6C4DA8363078F72840
:101C600073D129793046FEF7C7FA0004000C2881A9
:101C70006BD170783446A0344D2807D001214F280D
:101C800054D0E970327822708030B4E030792B790A
:101C9000C21DCD219A4203D0C20701D0307840E066
:101CA000EA881704584AA8329378D2781B021F4357
:101CB00017430190564857223818120290422ED2EC
:101CC000E868B84209D8002800D1EF60E868FEF75C
:101CD0009BFBE868FF300130E86000260FE08019C8
:101CE0000090401DFEF74AFA01020098090A007AA6
:101CF00000060143B819FEF7A0FB361DF6B20198A5
:101D000086424448EBD3017821704D21617081787F
:101D1000A170C178E17000792071052024E03D4870
:101D20000078207061700320A0701DE03078207072
:101D30004F206070B078A070F078E0706A7806206C
:101D4000002A728852BA08D000E030E0130000F098
:101D500059FB06074E0D40474E51032A39D011E07A
:101D6000317921717179617128700BE032792271BA
:101D7000737963712870E8880004120210431843D5
:101D80002861A97029782348A030FEF735FA288108
:101D9000297860542978000A611848702A786423E9
:101DA0001C491948A0313830921CFFF772FD002001
:101DB0002871014601221C20FEF7F6FD1C20FEF7CB
:101DC000E9FD1148383000680168202211430160A4
:101DD000FEBD69703179C94321717179C943C2E788
:101DE0007179EA888A18EA8032792271BBE700218A
:101DF0002171B8E7CF206070A1700320B4E7000024
:101E000000080140FEFF00002C0000200000002020
:101E100000D8FFF7D400002070B5026801239B07AB
:101E20000F4C104D984203D0A04201D0A84203D1DC
:101E30007026B2434E683243984203D0A04201D08C
:101E4000A84204D103231B029A43CB681A430260C1
:101E50008A68C262096881620121416170BD000027
:101E6000000801400014014030B58468FF252D02B0
:101E70001B021343AC430B432343836030BD826892
:101E800070239A430A4307210A438260704730B5A2
:101E9000036A046A6408640004628469F025AC4340
:101EA000120122430A24A3430B438261036230BD23
:101EB00030B5036A1024A34303628469036A0F25C3
:101EC0002D031203AC432243A024A3430901194369
:101ED0008261016230BD10B5818CC90707D00168ED
:101EE0004A6801235B049A43836A1A434A60818CDF
:101EF000890707D501684A6801231B049A43C36A0E
:101F00001A434A60818C490707D501684A68012352
:101F10009B049A43036B1A434A60818C090707D5D7
:101F200001684A680123DB039A43436B1A434A6002
:101F3000818CC90607D50268916801231B03994368
:101F4000836B19439160818C890607D501688A6883
:101F500001235B039A43C36B1A438A60818C490651
:101F600012D503685A6801210905046C8A4322438B
:101F70005A60026C8A4207D10268516803235B05EC
:101F80009943436C19435160818C090607D5016858
:101F90004A680123DB04806C9A4302434A6010BD07
:101FA000F8B500260446C666FEF760FC05462068C4
:101FB0000068124F000709D501212B460022490570
:101FC0002046009700F0A3F900280DD12068006892
:101FD00040070BD501212B4600228905204600979A
:101FE00000F095F9002801D00320F8BD20206034CE
:101FF0006072A07226720020F8BD0000FFFFFF0192
:1020000010B5806A0022014640314A834A82FFF7B8
:102010005EFB10BD01680A68FF2321339A430A6002
:1020200001688A68520852008A60202160308172FB
:10203000704770B50246403201466031938B8D7A0D
:102040000C460168222D05D088690822104388615A
:10205000022070BD496A01268568360389B2B542FF
:1020600002D10569002D0BD01940436D5D1C4565FB
:102070001970518B491E0904090C518307D015E0D2
:10208000456D19402980416D891C4165F1E7016862
:102090000A68FF2321339A430A6001688A6852085C
:1020A00052008A602021A172FFF7F2FB002070BD70
:1020B000FEB50446016880682269E36910436269DD
:1020C000102700261A4310430A6835466D4B1A4004
:1020D00002430A6021684868032212039043E268C1
:1020E00010434860684A2168A069914201D0226A81
:1020F00010438A680B231B029A4302438A60634A97
:102100002068634990420AD1C8680C2108402BD04E
:1021100004282DD0082829D00C2810D10EE05A4AC6
:1021200090420CD1C9680320800201401CD01015D8
:10213000091A1DD0091A19D0814200D1082702209E
:10214000FEF736FC0190504B514922684039D813B4
:1021500000929A4235D1002F0CD0022F0DD0042FBF
:1021600012D0082F1CD113E00027E8E70227E6E78A
:102170000427E4E7FEF736FE08E00868C00601D54C
:10218000444805E0444803E0FEF74CFE002873D0C5
:10219000626851005118814202D81103814201D274
:1021A000012569E0010E060250080023301859414C
:1021B000FDF7B4FF03210902384A411A914259D967
:1021C000EEE7E26982422DD13B0000F01BF90906DF
:1021D000080B24192424241F2400019812E0FEF780
:1021E00011FE0FE008686168C00602D548082C4A55
:1021F00001E02C4A48088018FDF77AFF86B20BE010
:10220000FEF710FE616840004A08F4E761680122A9
:1022100048081204EFE70125310909013007400F92
:10222000084327E03B0000F0EDF809070A0D061D02
:10223000060606290600B3E7FEF7D4FD14E0FEF714
:10224000E1FD11E008686168C00602D54A0811483E
:1022500001E011484A081018FDF74AFF81B20098C2
:10226000C16009E0FEF7DEFD61684A088018FDF7ED
:102270003FFF80B22168C8602846FEBD61684A08F9
:10228000E9E70000F369FFEF004800400044004028
:102290004010024000093D000024F400FFFC0F0044
:1022A00000127A000048E8016921095C212901D067
:1022B0000220704702464032518A002912D0012381
:1022C00081681B03994202D10169002915D0C16CB4
:1022D0004B1CC364006809788162508A401E50829A
:1022E0000020704701680A6880239A430A600068EA
:1022F0000168402211430160F2E7C16C036809885C
:10230000C905C90D9962C16C891CC164E5E7FFB5B7
:1023100081B017460E4604460A9D1DE0681C1BD07E
:10232000002D05D0FEF7A2FA0499401AA84213D94D
:1023300020680168FF22A132914301602068816812
:10234000490849008160202060346072A07200203A
:102350002072032005B0F0BD2068C1693046884373
:1023600004D00020B842D9D00020F3E70120F9E7DB
:1023700010B50E49C869800612D50D4802680D4B8C
:102380001A400260002242624A6A0C490A4B0C79E8
:102390001A550A79521C0A71016801221143016021
:1023A00005487038FFF794F910BD00000044004064
:1023B00000080140FEFF0000D400002000000020C3
:1023C00010B50E490C4A0A600D4A8000105848604A
:1023D00000208860C86008618861C8610C220862BA
:1023E0004A6148620346024601460448FEF74CFF34
:1023F000002800D0FEE710BD00440040640000202B
:102400001827000830B47446641E2578641CAB425B
:1024100000D21D46635D5B00E31830BC184702E044
:1024200008C8121F08C1002AFAD17047704700205F
:1024300001E001C1121F002AFBD1704708B52D48E9
:1024400081682D4A01252D4E914200D175700121E0
:1024500081F31088C9068160002080F31088FEF7A0
:102460004DFAFFF783FB264CE06A2843E062E06AFE
:10247000C007C00F0090FFF7D3FAFFF771FA2248A8
:1024800020490160032141602049C1608160FEF75D
:10249000F3F9002800D0FEE700211C20FFF7E0FA46
:1024A00001201B4900070860174848300068016890
:1024B0002022114301600220FFF782FF0220FFF774
:1024C00077FAE16A04200143E162E16A7D24014078
:1024D000E40000910C48FEF701FA2046FEF71AF8D6
:1024E0000948FEF7FBF97078002800D1B570FDF7B8
:1024F000A7FEEFE700ED00E0002800080000002044
:1025000000100240003000401C000020FF0F0000BF
:1025100000E100E00F080400C1814001C0804101DA
:10252000C0804100C1814001C0804100C1814000A4
:10253000C1814001C0804101C0804100C181400093
:10254000C1814001C0804100C1814001C080410182
:10255000C0804100C1814001C0804100C181400074
:10256000C1814001C0804100C1814001C080410162
:10257000C0804100C1814000C1814001C080410153
:10258000C0804100C1814001C0804100C181400044
:10259000C1814001C0804101C0804100C181400033
:1025A000C1814001C0804100C1814001C080410122
:1025B000C0804100C1814000C1814001C080410113
:1025C000C0804100C1814001C0804100C181400004
:1025D000C1814001C0804100C1814001C0804101F2
:1025E000C0804100C1814001C0804100C1814000E4
:1025F000C1814001C0804101C0804100C1814000D3
:10260000C1814001C0804100C1814001C0804101C1
:10261000C0804100C1814000C0C101C30302C2C6E5
:102620000607C705C5C404CC0C0DCD0FCFCE0E0ACE
:10263000CACB0BC90908C8D81819D91BDBDA1A1E6E
:10264000DEDF1FDD1D1CDC14D4D515D71716D6D23E
:102650001213D311D1D010F03031F133F3F23236FE
:10266000F6F737F53534F43CFCFD3DFF3F3EFEFA0E
:102670003A3BFB39F9F83828E8E929EB2B2AEAEE4E
:102680002E2FEF2DEDEC2CE42425E527E7E626227E
:10269000E2E323E12120E0A06061A163A3A26266DE
:1026A000A6A767A56564A46CACAD6DAF6F6EAEAA4E
:1026B0006A6BAB69A9A86878B8B979BB7B7ABABEEE
:1026C0007E7FBF7DBDBC7CB47475B577B7B67672BE
:1026D000B2B373B17170B0509091519353529296BE
:1026E000565797559594549C5C5D9D5F9F9E5E5A8E
:1026F0009A9B5B99595898884849894B8B8A4A4ECE
:102700008E8F4F8D4D4C8C448485458747468682FD
:10271000424383418180400060090000C0120000F4
:1027200080250000000000000000000001020304FA
:1027300006070809030406080C10182030000000E2
:1027400000010203040000006827000800000020C8
:102750001C0000001E240008842700081C00002024
:10276000840500002E24000800000000000000087E
:102770000000000000000000002800080000000029
:0427800080841E0033
:04000005080000C12E
:00000001FF
